{
  "contractName": "Item",
  "abi": [
    {
      "inputs": [
        {
          "internalType": "contract ItemManager",
          "name": "_parentContract",
          "type": "address"
        },
        {
          "internalType": "uint256",
          "name": "_index",
          "type": "uint256"
        },
        {
          "internalType": "uint256",
          "name": "_priceinWei",
          "type": "uint256"
        }
      ],
      "stateMutability": "nonpayable",
      "type": "constructor"
    },
    {
      "anonymous": false,
      "inputs": [
        {
          "indexed": false,
          "internalType": "address",
          "name": "who",
          "type": "address"
        },
        {
          "indexed": false,
          "internalType": "uint256",
          "name": "data",
          "type": "uint256"
        }
      ],
      "name": "DebugEvent",
      "type": "event"
    },
    {
      "stateMutability": "payable",
      "type": "fallback"
    },
    {
      "inputs": [],
      "name": "index",
      "outputs": [
        {
          "internalType": "uint256",
          "name": "",
          "type": "uint256"
        }
      ],
      "stateMutability": "view",
      "type": "function"
    },
    {
      "inputs": [],
      "name": "pricePaid",
      "outputs": [
        {
          "internalType": "uint256",
          "name": "",
          "type": "uint256"
        }
      ],
      "stateMutability": "view",
      "type": "function"
    },
    {
      "inputs": [],
      "name": "priceinWei",
      "outputs": [
        {
          "internalType": "uint256",
          "name": "",
          "type": "uint256"
        }
      ],
      "stateMutability": "view",
      "type": "function"
    },
    {
      "stateMutability": "payable",
      "type": "receive"
    }
  ],
  "bytecode": "0x608060405234801561001057600080fd5b506040516104a03803806104a08339818101604052606081101561003357600080fd5b81019080805190602001909291908051906020019092919080519060200190929190505050806000819055508160018190555082600360006101000a81548173ffffffffffffffffffffffffffffffffffffffff021916908373ffffffffffffffffffffffffffffffffffffffff1602179055505050506103e7806100b96000396000f3fe6080604052600436106100385760003560e01c80632986c0e51461031e5780634ba873881461034957806389794d00146103745761031c565b3661031c576000600254146100b5576040517f08c379a00000000000000000000000000000000000000000000000000000000081526004018080602001828103825260108152602001807f416c7265616479207061696420666f720000000000000000000000000000000081525060200191505060405180910390fd5b346000541461012c576040517f08c379a000000000000000000000000000000000000000000000000000000000815260040180806020018281038252601a8152602001807f4f6e6c792066756c6c207061796d656e7420616363657074656400000000000081525060200191505060405180910390fd5b6000600360009054906101000a900473ffffffffffffffffffffffffffffffffffffffff1673ffffffffffffffffffffffffffffffffffffffff1634600154604051602401808281526020019150506040516020818303038152906040527f800fb83f000000000000000000000000000000000000000000000000000000007bffffffffffffffffffffffffffffffffffffffffffffffffffffffff19166020820180517bffffffffffffffffffffffffffffffffffffffffffffffffffffffff83818316178352505050506040518082805190602001908083835b6020831061022b5780518252602082019150602081019050602083039250610208565b6001836020036101000a03801982511681845116808217855250505050505090500191505060006040518083038185875af1925050503d806000811461028d576040519150601f19603f3d011682016040523d82523d6000602084013e610292565b606091505b5050905080610309576040517f08c379a000000000000000000000000000000000000000000000000000000000815260040180806020018281038252601e8152602001807f5472616e73616374696f6e206661696c65642e2043616e63656c6c696e67000081525060200191505060405180910390fd5b3460026000828254019250508190555050005b005b34801561032a57600080fd5b5061033361039f565b6040518082815260200191505060405180910390f35b34801561035557600080fd5b5061035e6103a5565b6040518082815260200191505060405180910390f35b34801561038057600080fd5b506103896103ab565b6040518082815260200191505060405180910390f35b60015481565b60005481565b6002548156fea2646970667358221220c55e78f2fc519d6b5d73aa094e0a7eab23282a91dc067ef7f521a18342302d0b64736f6c63430006010033",
  "source": "//SPDX-License-Identifier: UNLICENSED\r\npragma solidity >=0.4.21 <0.7.0;\r\nimport \"./ItemManager.sol\";\r\n\r\ncontract Item {\r\n\r\n    uint public priceinWei;\r\n    uint public index;\r\n    uint public pricePaid;\r\n    ItemManager parentContract;\r\n    \r\n    event DebugEvent(address who, uint data);\r\n\r\n    constructor(ItemManager _parentContract, uint _index,  uint _priceinWei)  public {\r\n        priceinWei =  _priceinWei;\r\n        index = _index;\r\n        parentContract = _parentContract;\r\n    }\r\n\r\n    receive() external payable {\r\n        require(pricePaid == 0, \"Already paid for\");\r\n        require(priceinWei == msg.value, \"Only full payment accepted\");\r\n        (bool success, ) = address(parentContract).call.value(msg.value)(abi.encodeWithSignature(\"triggerPayment(uint256)\", index));\r\n        require(success, \"Transaction failed. Cancelling\");\r\n        pricePaid += msg.value;\r\n    }\r\n\r\n    fallback() external payable{\r\n\r\n    }\r\n\r\n}\r\n\r\n",
  "sourcePath": "D:\\code\\ethereum\\solidity\\node\\contracts\\Item.sol",
  "compiler": {
    "name": "solc",
    "version": "0.6.1+commit.e6f7d5a4.Emscripten.clang"
  },
  "schemaVersion": "3.4.3",
  "updatedAt": "2021-09-21T01:41:27.016Z",
  "devdoc": {
    "methods": {}
  },
  "userdoc": {
    "methods": {}
  }
}